:1000000010C02AC029C028C027C026C095C124C05E
:1000100023C022C021C02DC11FC01EC01DC01CC0D6
:100020001BC011241FBECFE5D1E0DEBFCDBF10E065
:10003000A0E6B0E0E6EEF3E002C005900D92AA3B28
:10004000B107D9F720E0AAEBB0E001C01D92A43CB3
:10005000B207E1F7ABD1C5C1D3CF37D1F89480B7A0
:10006000836080BF83B7836083BF83B7837383BF9D
:1000700089B7816089BF1092BF001092C000789448
:100080000895F8941092BE001092BD001092BC002A
:100090001092BB001092C1008FEF8093C0001092AD
:1000A000BA0078940895F8941092BE001092BD00A2
:1000B0001092BC001092BB001092C1001092C000C0
:1000C0008FEF8093BA00789408958091C0000895CE
:1000D0001F93CF93DF93C0E118E0D5E0B5C08091C6
:1000E000C000882309F455C04ED1882321F0D09355
:1000F000C1001FD14AC0E091BD00F091BE00EB5994
:10010000FF4F8081803269F4C093C10012D1809189
:10011000BD009091BE0001969093BE008093BD00FB
:1001200034C0E091BD00F091BE00EB59FF4F8081DB
:100130008E3279F41093C10066E087E0DED08091C2
:10014000BD009091BE0001969093BE008093BD00CB
:100150001CC0E091BD00F091BE00EB59FF4F8081C3
:100160008D3279F4C093C10066E087E0C6D08091FB
:10017000BD009091BE0001969093BE008093BD009B
:1001800004C0D7D01092C00070C01092BC00109272
:10019000BB008091BA00882309F456C0F4D08823AC
:1001A00021F0D093C100C5D04BC0E091BD00F091CB
:1001B000BE00E05AFF4F8081803269F4C093C100D5
:1001C000B8D08091BD009091BE0001969093BE0082
:1001D0008093BD0035C0E091BD00F091BE00E05AB3
:1001E000FF4F80818E3279F41093C10066E087E082
:1001F00084D08091BD009091BE0001969093BE0086
:100200008093BD001DC0E091BD00F091BE00E05A9A
:10021000FF4F80818D3279F4C093C10067E080E0A8
:100220006CD08091BD009091BE0001969093BE006D
:100230008093BD0005C01092BE001092BD0015C095
:100240001092BC001092BB002091BB003091BC000A
:10025000C90101969093BC008093BB008091C100BE
:1002600090E02817390708F03ACFDF91CF911F911E
:1002700008951F920F920FB60F9211242F933F9360
:100280004F935F936F937F938F939F93AF93BF939E
:10029000EF93FF9378948091BF0091E0980F909333
:1002A000BF00837009F414DFFF91EF91BF91AF910C
:1002B0009F918F917F916F915F914F913F912F917E
:1002C0000F900FBE0F901F901895F894D79A8FB586
:1002D0008C7F8FBD8EB58A608EBD8EB58F7E8EBDB4
:1002E000619A1DBC1CBC8FEF9FEF9BBD8ABD109215
:1002F000C2001092C30078940895262F6CE065D058
:10030000E92FF0E0EE0FFF1FEE55FF4F822F6AE05E
:100310005CD0292F8081918102C0969587952A957E
:10032000E2F79BBD8ABD1DBC1CBC8FEF8093C30050
:1003300008951092C30008951F920F920FB60F9266
:1003400011248F939F938091C300882361F0809143
:10035000C20091E0980F9093C2009BB387958827C5
:100360008795892B8BBB8091C2009BB3879588278B
:100370008795809589238BBB9F918F910F900FBE9E
:100380000F901F9018958091C3000895882369F0FD
:1003900090E02FEF39E648E1215030404040E1F74E
:1003A00000C000009F5F8913F4CF089556DE69DE18
:1003B0008CDE8111FDCF77DE89E1E8DF62DE85DE4C
:1003C0008111FDCF8CE3E2DFF2CF991B79E004C00D
:1003D000991F961708F0961B881F7A95C9F7809584
:0603E0000895F894FFCF20
:1003E6002D2D2D2E00202020202D2E2E2E202E20AD
:1003F6002E2D202D2E2D2E202D2D2D202D2E202064
:1004060020202E2E2D2E202D2D2D202D2E2E2D2052
:100416002E2E2E2E202E2E2D202D2E202D2020204D
:100426002000E4EE7CE1D4D4E2C89CBDF7B2ECA88F
:0A043600719F7E960C8E13868C7E5B
:00000001FF
